{
  "_format": "hh-sol-artifact-1",
  "contractName": "SecurityTokenRegistry",
  "sourceName": "contracts/SecurityTokenRegistry.sol",
  "abi": [
    {
      "inputs": [],
      "stateMutability": "nonpayable",
      "type": "constructor"
    },
    {
      "anonymous": false,
      "inputs": [
        {
          "indexed": true,
          "internalType": "address",
          "name": "minter",
          "type": "address"
        }
      ],
      "name": "MinterAdded",
      "type": "event"
    },
    {
      "anonymous": false,
      "inputs": [
        {
          "indexed": true,
          "internalType": "address",
          "name": "minter",
          "type": "address"
        }
      ],
      "name": "MinterRemoved",
      "type": "event"
    },
    {
      "anonymous": false,
      "inputs": [
        {
          "indexed": true,
          "internalType": "uint256",
          "name": "securityId",
          "type": "uint256"
        },
        {
          "indexed": true,
          "internalType": "address",
          "name": "to",
          "type": "address"
        },
        {
          "indexed": false,
          "internalType": "uint256",
          "name": "amount",
          "type": "uint256"
        },
        {
          "indexed": false,
          "internalType": "string",
          "name": "symbol",
          "type": "string"
        }
      ],
      "name": "SecurityMinted",
      "type": "event"
    },
    {
      "anonymous": false,
      "inputs": [
        {
          "indexed": true,
          "internalType": "uint256",
          "name": "securityId",
          "type": "uint256"
        },
        {
          "indexed": true,
          "internalType": "address",
          "name": "from",
          "type": "address"
        },
        {
          "indexed": true,
          "internalType": "address",
          "name": "to",
          "type": "address"
        },
        {
          "indexed": false,
          "internalType": "uint256",
          "name": "amount",
          "type": "uint256"
        }
      ],
      "name": "TokensTransferred",
      "type": "event"
    },
    {
      "anonymous": false,
      "inputs": [
        {
          "indexed": true,
          "internalType": "bytes32",
          "name": "tradeId",
          "type": "bytes32"
        },
        {
          "indexed": true,
          "internalType": "uint256",
          "name": "securityId",
          "type": "uint256"
        },
        {
          "indexed": false,
          "internalType": "address",
          "name": "buyer",
          "type": "address"
        },
        {
          "indexed": false,
          "internalType": "address",
          "name": "seller",
          "type": "address"
        },
        {
          "indexed": false,
          "internalType": "uint256",
          "name": "quantity",
          "type": "uint256"
        },
        {
          "indexed": false,
          "internalType": "uint256",
          "name": "price",
          "type": "uint256"
        },
        {
          "indexed": false,
          "internalType": "uint256",
          "name": "timestamp",
          "type": "uint256"
        }
      ],
      "name": "TradeExecuted",
      "type": "event"
    },
    {
      "inputs": [
        {
          "internalType": "address",
          "name": "account",
          "type": "address"
        }
      ],
      "name": "addMinter",
      "outputs": [],
      "stateMutability": "nonpayable",
      "type": "function"
    },
    {
      "inputs": [
        {
          "internalType": "uint256",
          "name": "",
          "type": "uint256"
        },
        {
          "internalType": "address",
          "name": "",
          "type": "address"
        }
      ],
      "name": "balances",
      "outputs": [
        {
          "internalType": "uint256",
          "name": "",
          "type": "uint256"
        }
      ],
      "stateMutability": "view",
      "type": "function"
    },
    {
      "inputs": [
        {
          "internalType": "bytes32",
          "name": "tradeId",
          "type": "bytes32"
        },
        {
          "internalType": "uint256",
          "name": "securityId",
          "type": "uint256"
        },
        {
          "internalType": "address",
          "name": "buyer",
          "type": "address"
        },
        {
          "internalType": "address",
          "name": "seller",
          "type": "address"
        },
        {
          "internalType": "uint256",
          "name": "quantity",
          "type": "uint256"
        },
        {
          "internalType": "uint256",
          "name": "price",
          "type": "uint256"
        }
      ],
      "name": "executeTrade",
      "outputs": [],
      "stateMutability": "nonpayable",
      "type": "function"
    },
    {
      "inputs": [
        {
          "internalType": "uint256",
          "name": "securityId",
          "type": "uint256"
        },
        {
          "internalType": "address",
          "name": "holder",
          "type": "address"
        }
      ],
      "name": "getBalance",
      "outputs": [
        {
          "internalType": "uint256",
          "name": "",
          "type": "uint256"
        }
      ],
      "stateMutability": "view",
      "type": "function"
    },
    {
      "inputs": [
        {
          "internalType": "uint256",
          "name": "securityId",
          "type": "uint256"
        }
      ],
      "name": "getHolders",
      "outputs": [
        {
          "internalType": "address[]",
          "name": "",
          "type": "address[]"
        }
      ],
      "stateMutability": "view",
      "type": "function"
    },
    {
      "inputs": [
        {
          "internalType": "bytes32",
          "name": "tradeId",
          "type": "bytes32"
        }
      ],
      "name": "getTrade",
      "outputs": [
        {
          "internalType": "uint256",
          "name": "securityId",
          "type": "uint256"
        },
        {
          "internalType": "address",
          "name": "buyer",
          "type": "address"
        },
        {
          "internalType": "address",
          "name": "seller",
          "type": "address"
        },
        {
          "internalType": "uint256",
          "name": "quantity",
          "type": "uint256"
        },
        {
          "internalType": "uint256",
          "name": "price",
          "type": "uint256"
        },
        {
          "internalType": "uint256",
          "name": "timestamp",
          "type": "uint256"
        }
      ],
      "stateMutability": "view",
      "type": "function"
    },
    {
      "inputs": [
        {
          "internalType": "uint256",
          "name": "securityId",
          "type": "uint256"
        },
        {
          "internalType": "address",
          "name": "to",
          "type": "address"
        },
        {
          "internalType": "uint256",
          "name": "amount",
          "type": "uint256"
        },
        {
          "internalType": "string",
          "name": "symbol",
          "type": "string"
        }
      ],
      "name": "mintSecurity",
      "outputs": [],
      "stateMutability": "nonpayable",
      "type": "function"
    },
    {
      "inputs": [
        {
          "internalType": "address",
          "name": "",
          "type": "address"
        }
      ],
      "name": "minters",
      "outputs": [
        {
          "internalType": "bool",
          "name": "",
          "type": "bool"
        }
      ],
      "stateMutability": "view",
      "type": "function"
    },
    {
      "inputs": [],
      "name": "owner",
      "outputs": [
        {
          "internalType": "address",
          "name": "",
          "type": "address"
        }
      ],
      "stateMutability": "view",
      "type": "function"
    },
    {
      "inputs": [
        {
          "internalType": "bytes32",
          "name": "tradeId",
          "type": "bytes32"
        },
        {
          "internalType": "address",
          "name": "buyer",
          "type": "address"
        },
        {
          "internalType": "address",
          "name": "seller",
          "type": "address"
        },
        {
          "internalType": "uint256",
          "name": "quantity",
          "type": "uint256"
        },
        {
          "internalType": "uint256",
          "name": "price",
          "type": "uint256"
        },
        {
          "internalType": "string",
          "name": "assetSymbol",
          "type": "string"
        },
        {
          "internalType": "bytes32",
          "name": "dataHash",
          "type": "bytes32"
        }
      ],
      "name": "recordTrade",
      "outputs": [],
      "stateMutability": "nonpayable",
      "type": "function"
    },
    {
      "inputs": [
        {
          "internalType": "address",
          "name": "account",
          "type": "address"
        }
      ],
      "name": "removeMinter",
      "outputs": [],
      "stateMutability": "nonpayable",
      "type": "function"
    },
    {
      "inputs": [
        {
          "internalType": "uint256",
          "name": "",
          "type": "uint256"
        }
      ],
      "name": "securityExists",
      "outputs": [
        {
          "internalType": "bool",
          "name": "",
          "type": "bool"
        }
      ],
      "stateMutability": "view",
      "type": "function"
    },
    {
      "inputs": [
        {
          "internalType": "uint256",
          "name": "",
          "type": "uint256"
        }
      ],
      "name": "totalSupply",
      "outputs": [
        {
          "internalType": "uint256",
          "name": "",
          "type": "uint256"
        }
      ],
      "stateMutability": "view",
      "type": "function"
    },
    {
      "inputs": [
        {
          "internalType": "bytes32",
          "name": "",
          "type": "bytes32"
        }
      ],
      "name": "trades",
      "outputs": [
        {
          "internalType": "bytes32",
          "name": "tradeId",
          "type": "bytes32"
        },
        {
          "internalType": "uint256",
          "name": "securityId",
          "type": "uint256"
        },
        {
          "internalType": "address",
          "name": "buyer",
          "type": "address"
        },
        {
          "internalType": "address",
          "name": "seller",
          "type": "address"
        },
        {
          "internalType": "uint256",
          "name": "quantity",
          "type": "uint256"
        },
        {
          "internalType": "uint256",
          "name": "price",
          "type": "uint256"
        },
        {
          "internalType": "uint256",
          "name": "timestamp",
          "type": "uint256"
        }
      ],
      "stateMutability": "view",
      "type": "function"
    },
    {
      "inputs": [
        {
          "internalType": "address",
          "name": "newOwner",
          "type": "address"
        }
      ],
      "name": "transferOwnership",
      "outputs": [],
      "stateMutability": "nonpayable",
      "type": "function"
    }
  ],
  "bytecode": "0x608060405234801561001057600080fd5b50600080546001600160a01b0319163390811782558152600160208190526040909120805460ff191690911790556110998061004d6000396000f3fe608060405234801561001057600080fd5b50600436106100f45760003560e01c80639270786911610097578063bd85b03911610066578063bd85b0391461033a578063e876e15b1461035a578063f2fde38b1461036d578063f46eccc41461038057600080fd5b80639270786914610268578063983b2d5614610288578063a3b137991461029b578063b0a794591461032757600080fd5b80633092afd5116100d35780633092afd51461020257806336ca5465146102175780638131e7a81461022a5780638da5cb5b1461023d57600080fd5b8062162420146100f957806308d4d078146101965780631f320331146101c9575b600080fd5b610150610107366004610d2e565b6007602052600090815260409020805460018201546002830154600384015460048501546005860154600690960154949593946001600160a01b03938416949390921692909187565b6040805197885260208801969096526001600160a01b0394851695870195909552929091166060850152608084015260a083015260c082015260e0015b60405180910390f35b6101b96101a4366004610d2e565b60046020526000908152604090205460ff1681565b604051901515815260200161018d565b6101f46101d7366004610d63565b600260209081526000928352604080842090915290825290205481565b60405190815260200161018d565b610215610210366004610d8f565b6103a3565b005b610215610225366004610db1565b61041f565b610215610238366004610e52565b610795565b600054610250906001600160a01b031681565b6040516001600160a01b03909116815260200161018d565b61027b610276366004610d2e565b610968565b60405161018d9190610edb565b610215610296366004610d8f565b6109d4565b6102ee6102a9366004610d2e565b60009081526007602052604090206001810154600282015460038301546004840154600585015460069095015493956001600160a01b03938416959390921693909291565b604080519687526001600160a01b03958616602088015293909416928501929092526060840152608083015260a082015260c00161018d565b6101f4610335366004610d63565b610a4d565b6101f4610348366004610d2e565b60036020526000908152604090205481565b610215610368366004610f28565b610a77565b61021561037b366004610d8f565b610c0c565b6101b961038e366004610d8f565b60016020526000908152604090205460ff1681565b6000546001600160a01b031633146103d65760405162461bcd60e51b81526004016103cd90610f90565b60405180910390fd5b6001600160a01b038116600081815260016020526040808220805460ff19169055517fe94479a9f7e1952cc78f2d6baab678adc1b772d936c6583def489e524cb666929190a250565b3360009081526001602052604090205460ff168061044757506000546001600160a01b031633145b6104635760405162461bcd60e51b81526004016103cd90610fb8565b60008581526004602052604090205460ff166104b95760405162461bcd60e51b81526020600482015260156024820152745354523a20756e6b6e6f776e20736563757269747960581b60448201526064016103cd565b60008581526002602090815260408083206001600160a01b038716845290915290205482111561052b5760405162461bcd60e51b815260206004820152601960248201527f5354523a20696e73756666696369656e742062616c616e63650000000000000060448201526064016103cd565b600086815260076020526040902060060154156105835760405162461bcd60e51b815260206004820152601660248201527514d5148e88191d5c1b1a58d85d19481d1c985919525960521b60448201526064016103cd565b60008581526002602090815260408083206001600160a01b0387168452909152812080548492906105b5908490610ff7565b909155505060008581526002602090815260408083206001600160a01b0388168452909152812080548492906105ec90849061100a565b909155506105fc90508585610ca2565b6040518060e00160405280878152602001868152602001856001600160a01b03168152602001846001600160a01b031681526020018381526020018281526020014281525060076000888152602001908152602001600020600082015181600001556020820151816001015560408201518160020160006101000a8154816001600160a01b0302191690836001600160a01b0316021790555060608201518160030160006101000a8154816001600160a01b0302191690836001600160a01b031602179055506080820151816004015560a0820151816005015560c08201518160060155905050836001600160a01b0316836001600160a01b0316867f69d21b294c0b932db9bb0dc81144c65ac23a4c078f00589443bb03baa63e3c968560405161072991815260200190565b60405180910390a4604080516001600160a01b0380871682528516602082015290810183905260608101829052426080820152859087907fc9bb99d40ff8218a28ce6b2eb4a08d1d436ebd759c27a7dd63d9ab1d11c304da9060a00160405180910390a3505050505050565b3360009081526001602052604090205460ff16806107bd57506000546001600160a01b031633145b6107d95760405162461bcd60e51b81526004016103cd90610fb8565b600083836040516020016107ee92919061101d565b6040516020818303038152906040528051906020012060001c90506040518060e001604052808a8152602001828152602001896001600160a01b03168152602001886001600160a01b0316815260200187815260200186815260200142815250600760008b8152602001908152602001600020600082015181600001556020820151816001015560408201518160020160006101000a8154816001600160a01b0302191690836001600160a01b0316021790555060608201518160030160006101000a8154816001600160a01b0302191690836001600160a01b031602179055506080820151816004015560a0820151816005015560c0820151816006015590505080897fc9bb99d40ff8218a28ce6b2eb4a08d1d436ebd759c27a7dd63d9ab1d11c304da8a8a8a8a426040516109559594939291906001600160a01b03958616815293909416602084015260408301919091526060820152608081019190915260a00190565b60405180910390a3505050505050505050565b6000818152600560209081526040918290208054835181840281018401909452808452606093928301828280156109c857602002820191906000526020600020905b81546001600160a01b031681526001909101906020018083116109aa575b50505050509050919050565b6000546001600160a01b031633146109fe5760405162461bcd60e51b81526004016103cd90610f90565b6001600160a01b0381166000818152600160208190526040808320805460ff1916909217909155517f6ae172837ea30b801fbfcdd4108aa1d5bf8ff775444fd70256b44e6bf3dfc3f69190a250565b60008281526002602090815260408083206001600160a01b03851684529091529020545b92915050565b3360009081526001602052604090205460ff1680610a9f57506000546001600160a01b031633145b610abb5760405162461bcd60e51b81526004016103cd90610fb8565b60008311610afe5760405162461bcd60e51b815260206004820152601060248201526f14d5148e881e995c9bc8185b5bdd5b9d60821b60448201526064016103cd565b6001600160a01b038416610b485760405162461bcd60e51b81526020600482015260116024820152705354523a207a65726f206164647265737360781b60448201526064016103cd565b6000858152600460209081526040808320805460ff19166001179055600282528083206001600160a01b038816845290915281208054859290610b8c90849061100a565b909155505060008581526003602052604081208054859290610baf90849061100a565b90915550610bbf90508585610ca2565b836001600160a01b0316857f31d9d2f00bd4e5bf5be78c940726f66036f6f3800037ee11889764e30b1c43db858585604051610bfd9392919061102d565b60405180910390a35050505050565b6000546001600160a01b03163314610c365760405162461bcd60e51b81526004016103cd90610f90565b6001600160a01b038116610c805760405162461bcd60e51b81526020600482015260116024820152705354523a207a65726f206164647265737360781b60448201526064016103cd565b600080546001600160a01b0319166001600160a01b0392909216919091179055565b60008281526006602090815260408083206001600160a01b038516845290915290205460ff16610d2a5760008281526006602090815260408083206001600160a01b038516808552908352818420805460ff19166001908117909155868552600584529184208054928301815584529190922090910180546001600160a01b03191690911790555b5050565b600060208284031215610d4057600080fd5b5035919050565b80356001600160a01b0381168114610d5e57600080fd5b919050565b60008060408385031215610d7657600080fd5b82359150610d8660208401610d47565b90509250929050565b600060208284031215610da157600080fd5b610daa82610d47565b9392505050565b60008060008060008060c08789031215610dca57600080fd5b8635955060208701359450610de160408801610d47565b9350610def60608801610d47565b92506080870135915060a087013590509295509295509295565b60008083601f840112610e1b57600080fd5b50813567ffffffffffffffff811115610e3357600080fd5b602083019150836020828501011115610e4b57600080fd5b9250929050565b60008060008060008060008060e0898b031215610e6e57600080fd5b88359750610e7e60208a01610d47565b9650610e8c60408a01610d47565b9550606089013594506080890135935060a089013567ffffffffffffffff811115610eb657600080fd5b610ec28b828c01610e09565b999c989b50969995989497949560c00135949350505050565b6020808252825182820181905260009190848201906040850190845b81811015610f1c5783516001600160a01b031683529284019291840191600101610ef7565b50909695505050505050565b600080600080600060808688031215610f4057600080fd5b85359450610f5060208701610d47565b935060408601359250606086013567ffffffffffffffff811115610f7357600080fd5b610f7f88828901610e09565b969995985093965092949392505050565b6020808252600e908201526d29aa291d103737ba1037bbb732b960911b604082015260600190565b6020808252600f908201526e29aa291d103737ba1036b4b73a32b960891b604082015260600190565b634e487b7160e01b600052601160045260246000fd5b81810381811115610a7157610a71610fe1565b80820180821115610a7157610a71610fe1565b8183823760009101908152919050565b83815260406020820152816040820152818360608301376000818301606090810191909152601f909201601f191601019291505056fea26469706673582212208305571207631a4600819f212e28795bcc25690fb3dabac378555de242e581ad64736f6c63430008140033",
  "linkReferences": {},
  "deployedLinkReferences": {}
}